:020000041000EA
:1000000000B5324B212058609868022188439860DF
:10001000D860186158612E4B002199600221596106
:100020000121F02299502B49196001219960352056
:1000300000F044F80222904214D00621196600F024
:1000400034F8196E01211966002018661A6600F04E
:100050002CF8196E196E196E052000F02FF8012189
:100060000842F9D1002199601B49196000215960AB
:100070001A491B48016001219960EB211966A021F2
:10008000196600F012F800219960164914480160C1
:100090000121996001BC002800D000471248134993
:1000A000086003C880F30888084703B5996A0420EC
:1000B0000142FBD001200142F8D103BD02B5186610
:1000C0001866FFF7F2FF186E186E02BD00000240BE
:1000D000000000180000070000035F00212200005C
:1000E000F4000018222000A00001001008ED00E03C
:1000F00000000000000000000000000074B24E7A12
:1001000000200420F7010010C3010010C5010010F9
:10011000C1010010C1010010C1010010C101001097
:10012000C1010010C1010010C1010010C701001081
:10013000C1010010C1010010C9010010CB01001065
:10014000CD010010CD010010CD010010CD01001037
:10015000CD010010CD010010CD010010CD01001027
:10016000CD010010CD010010CD010010CD01001017
:10017000CD010010CD010010CD010010CD01001007
:10018000CD010010CD010010CD010010CD010010F7
:10019000CD010010CD010010CD010010CD010010E7
:1001A000CD010010CD010010CD010010CD010010D7
:1001B000CD010010CD010010CD010010CD010010C7
:1001C00000BE00BE00BE00BE00BE00BEEFF3058054
:1001D000103800BEF2EB8871389E0010709E00103F
:1001E0003402001090A31AE700201F49086006C8D7
:1001F00081F3088810471D48006800282FD10DA4FE
:100200000ECC002902D000F012F8F9E71849194A7B
:10021000002000E001C19142FCD1174988471749ED
:1002200088471749884700BEFDE701C901C29A42C5
:10023000FBD37047709E0010C00000200C130020FC
:10024000BCB000100000042000000420BCB000106E
:10025000001004200010042000000000704709482E
:1002600003F0A4FF0047000008ED00E0000000D00C
:1002700010130020D4240020BD2E0010990A001075
:100280007D2E00105756000006005250ABB360534D
:10029000B091001006005250861C0302B891001065
:1002A000060052505422A29DC091001005005250E9
:1002B000DE65F468BCB00010F8B5C04606480749D2
:1002C000091A8B10C90FC91810B5491003D0044B77
:1002D000002B00D0984710BD0C1300200C130020F9
:1002E00000000000054B10B5002B03D00449054861
:1002F00000E000BFFFF7E2FF10BDC04600000000B5
:10030000D02100201087001010B5002905D0FA2256
:100310009200002303F0DCFF03E0FA21890003F0E0
:1003200099FF10BD10B504001F2100F09FFE0022B0
:100330000021200000F0B2FE0021200000F0C8FEE5
:1003400010BD000010B5002B02DB0260436010BD41
:10035000024B034A03483F2102F094FD108700102E
:100360002C8700106487001010B5040002F04AF8D2
:1003700002000B002000FFF7E5FF200010BD000089
:1003800000B583B06846FFF7EFFF00980199FFF7CB
:10039000BBFF024B186003B000BDC04628240020FC
:1003A00070B5060014001D00FA2292000023049884
:1003B000002104F0C7FD02000B0012196B41002B55
:1003C00004DB3000FFF7BEFF300070BD0122524257
:1003D000004BF6E7FFFFFF7F30B585B004000D004E
:1003E00002A8FFF7C1FF029A039B00952000FFF7C8
:1003F000D7FF200005B030BD10B504000298039966
:1004000012184B41002B04DB2000FFF79BFF20005C
:1004100010BD01225242014BF6E7C046FFFFFF7FAD
:1004200070B584B0040016001D0002A8FFF79CFF01
:10043000029A039B009601952000FFF7DDFF200044
:1004400004B070BD70B504001D1C08001A30206097
:1004500061602274FFF766FFFE218905281C04F005
:10046000E5FD002803D0FE25AD05E56070BD002147
:10047000281C04F0D5FD0028F7D00025F5E7000082
:10048000F8B5DE4657464E464546E0B504000D0039
:10049000037C9846002B16D0037E002B13D0080057
:1004A00004F0CEFD061C6769391C04F0B9FD002874
:1004B00000D19CE0680004F0C3FD391C04F05FFD2E
:1004C00004F0E0FD0500E3699A46280004F0B8FD59
:1004D000514604F054FD051C4000400804F004FEA1
:1004E0008146636A9B46181C04F006FE06000F0056
:1004F0005946281C04F043FD04F0FEFD524A534BBC
:1005000004F013F902000B003000390004F0E6F8A3
:1005100004F0C4F960624346002B0AD04100490848
:100520006069012604F082FD002800D100262823FE
:10053000E6544346002B03D02823E35C002B71D103
:10054000E668484604F077FD311C04F038FD04F0FD
:10055000D3FD00223E4B04F0C1F802000B00002046
:100560003B4904F0C4F804F099F904F0C5FD020019
:100570000B000020364904F0A8F802000B0004F03C
:10058000ADF804F08BF9061CFE21890504F04EFD40
:1005900000284BD14346002B0DD0301C04F0ACFD9D
:1005A00000222C4B04F0C1F800222A4B04F096F8EC
:1005B00004F074F9061C311C281C04F000FD011C19
:1005C000504604F0E1FC051CE061002104F028FD28
:1005D00000282ED1A068013804F032FD061C011C51
:1005E000281C04F023FD002825D0E66123E0A36841
:1005F0009946180004F024FD391C04F0C0FC011CCD
:10060000301C04F013FD002800D15CE768004B4665
:10061000C01A04F015FD391C04F0B6FC04F032FDDC
:10062000050050E7504604F02DFD07E0FE26B60514
:10063000B0E70023E361E06904F024FDF0BCBB46B1
:10064000B246A946A046F8BD333333333333D33FE4
:100650000000F03F0000E03F10B50400C162036BF2
:100660004363FFF70DFF2063636BC01A431E98417D
:100670003823E05410BD000010B5002303E0D02261
:10068000120694610133032B0DDC074A99008A5846
:1006900001210C00944002001A411142EFD0D022F7
:1006A00012065461EEE710BDA096001010B582B09E
:1006B000134B00221A70134B1B791A2B19D01F2BC6
:1006C00007D00E2B13D1104A0E48802100F075FB85
:1006D0000DE000F069FC0D4B01221A700C4C6421F6
:1006E0006846FFF779FE009A019B2260636002B0C2
:1006F00010BD00F079FB0448002100F07FFBF6E715
:10070000CD2400202C240020B81A0020CF24002063
:100710001814002030B593B000250021002006F009
:1007200057FB002818D002AC4023220000210020F3
:1007300006F08CFBC5B22378F82BEED02F4B0122AC
:100740001A702F4C2F4A00236846FFF769FE009A63
:10075000019B22606360E0E72B4B1B78002B09D1E3
:1007600002AB1B78F02B16D0284B1B7B002B3DD106
:1007700013B030BD264B1B7826482A0002A900F092
:10078000BBFB002804D1224A1378EB181370EFE763
:10079000FFF78CFFECE702AB5B787D2BE4D102AB7B
:1007A0009B78002BE0D102ABDB78002BDCD1164A22
:1007B00001211170164A0021117004E0154A002130
:1007C000D1540133DBB25AB2002AF7DA11480023C0
:1007D0002A0002A900F090FB002804D10C4A1378EB
:1007E000EB181370C4E7FFF761FFC1E70A4B186805
:1007F0002A0002A905F04AF9BAE7C046CE24002033
:100800001014002088130000CD240020B81A002006
:10081000D12400202C24002028140020F0B5D64636
:100820004F464646C0B584B0061E01D10024A7E05D
:10083000FA208000002101F005FEF7E7002E00D02D
:10084000CDE0B9468A4BDB191A004D3211785D3381
:100850001D78002900D1C6E00E239A46002D00D154
:10086000C4E00E20002900D1C2E0824BA200D35880
:100870001B8E9B009BB2002D00D1C0E07D4AA700DB
:10088000BA58128E920092B290467B4A6700BA5ACA
:100890009A4200D1BBE0784A6700BB52744A927812
:1008A000002A10D001229446170052469740FB1AA6
:1008B0009BB2013B9BB2624682404046121A92B202
:1008C000013A92B29046002900D1A3E0D8097F21D5
:1008D00008401940664F4F447A7B013AD2B2502308
:1008E0005B421343DBB202AA13707F7FBC46577092
:1008F000907003AF3B70634620337B70B970032365
:100900000021002006F044FB03233A0000210020D0
:1009100006F03EFB002D00D18FE04346DF097F202B
:1009200007401840524A4A4413002D3319780139C0
:10093000C9B250235B420B43DBB202A90B703D32BC
:1009400012784A708F7003AD2B7020326A70A870D5
:100950004A4F3868032205F099F8386803222900C5
:1009600005F094F8464B01221A70464D464A002382
:100970006846FFF755FD009A019B2A606B600134C1
:100980000F2C6EDC414BA200985CFFF775FE0A202D
:10099000002101F057FD3E4B04221A603D4B1B68BD
:1009A000DB05FBD53B4B5D68324BA200D0582D04D4
:1009B0002D0C2900FFF750FEE7B22D4B9B78002B42
:1009C00002D00F23DF1BFFB22A4BA200D0583823DE
:1009D000C35C002B00D031E7002ED0D02EE72900D9
:1009E000FFF73AFE2DE707239A4637E7072039E756
:1009F000204BA200D3581B6B5B119BB23BE71D4AF7
:100A0000A700BA58126B521192B290463DE7002EE1
:100A1000B5D040E716484844417B0139C9B203AA22
:100A200050277F4239431170417F517093700323E7
:100A30000021002006F0ACFA6CE70D4A4A44537BD3
:100A4000013BDBB203A95020404203430B70537FAC
:100A50004B7043468B70094B1868032205F016F85B
:100A600080E704B0E0BCBA46B146A846F0BDC04637
:100A7000B81A002030190020F82100202814002086
:100A8000CE2400201014002088130000B09600101F
:100A900000E0044000C0044070B582B007F00CF9DB
:100AA00004F0B8FD774C0121200000F0A7F9E378AD
:100AB000002B0DD104F01AFF1A20FFF733FC724B04
:100AC0001B68E022D2011340704A136000240FE03B
:100AD0006F4801F006FCEDE76E4BA200D5582800E8
:100AE00000F00EFB0123AB40D0221206536201340A
:100AF000032CF1DD192000F003FBD0231B0680221C
:100B000092045A6205220421012004F049FF624B3D
:100B1000186000251BE03C2004F0E2FB0400802369
:100B20005B0183608326F60546610123037600237B
:100B3000C361436228230022C254584B0132002172
:100B4000FFF780FC564BAA00D450666101350F2D8B
:100B5000E1DD06F0B9FCD0231B06802292049A61E5
:100B60006846FFF701FC00980199FFF7CDFB4D4B5C
:100B70001B78002B09D14C4B1B68C01AFA23DB00F1
:100B8000984202D9474B01221A70464B1B78002B22
:100B900037D1002002B070BD3A4B5B78002B09D0F2
:100BA000424B1B78002B05D0D0231B0680229204D9
:100BB0005A6104E0D0231B06802292049A616846A1
:100BC000FFF7D2FB009A019B3949086849681C006D
:100BD00013001B1A8C411A00002C23DD334B00221A
:100BE0001A70344B1B78002B21D16846FFF7BCFBF1
:100BF00000980199304B1A685B68121A8B41002BE0
:100C00002EDB01200021404205F0BEFEFFF782FDF1
:100C10001C4B1B78002BBFD0D0231B0680229204D4
:100C20005A61CCE7002CDCD1002AD7D1D9E768463D
:100C3000FFF79AFB009A019B2049086849681C004D
:100C400013001B1A8C411A00002C02DCCDD1002AA3
:100C5000CBD00120FFF7E2FD164B00221A70C4E74B
:100C6000154C0A216846FFF7B7FB009A019B2260EA
:100C700063600020FFF7D2FD074B186804F00CFFFB
:100C8000BFE7C046B81A002000C0044000D00440AE
:100C900010270000A096001028140020CDCC4C3D59
:100CA00030190020D024002028240020CE24002049
:100CB00010140020CF24002020140020181400203D
:100CC00010B5FFF75DFB10BDF0B503785A1E9341D8
:100CD0000B7043785A1E93414B7083785A1E934190
:100CE0008B70C3785A1E9341CB70037A5A1E93417E
:100CF0000B73002306E01A001032845CCA18547388
:100D00000133DBB20F2BF6D9002307E01A002032A3
:100D1000845CCA182D3214700133DBB20F2BF5D965
:100D2000002306E01A003032845CCA18547701337D
:100D3000DBB20F2BF6D9002307E01A004032845CA7
:100D4000CA183D3214700133DBB20F2BF5D9502392
:100D5000C65C7F273E400133C35CDB01FE2292016B
:100D600013401E435223C35C9B031E43B6B253235E
:100D7000C35C1F405423C35CDB0113401F43552356
:100D8000C35C9B031F43BFB200230EE034001C4131
:100D900001200440CA1815004D352C703C001C4140
:100DA00020405D3210700133DBB20F2BEED9F0BD65
:100DB00010B5562100F06AF810BD10B596B01400B9
:100DC000002305E0C118497A6A46D1540133DBB2E9
:100DD000552BF7D96846FFF7EBFF21006846FFF770
:100DE00073FF16B010BD000010B500F077F8024890
:100DF000FFF7DEFF10BDC046700C002030B597B085
:100E000005000C005621684600F02CF8002C03D099
:100E10006B465B78FF2B05D029006846FFF754FF2F
:100E200017B030BDFFF7E0FFFA204000002101F0CD
:100E30004BFA00212800FFF7E1FFF1E70023012032
:100E4000404200E001330F2B09D8054A9A181202DC
:100E500012680132F6D10028F4DA1800F2E7704780
:100E6000F01F100070B506000D00FFF7E7FF064BFE
:100E7000C4182402002303E0E25CF2540133DBB225
:100E8000AB42F9DB70BDC046EF1F100030B5C1B0FA
:100E900005000C00FFF7D2FF002303E0FF226946A4
:100EA000CA5401331A00FF2B05D89C42F6DDAA5C18
:100EB0006946CA54F5E7EFF3108472B6064B9C46B8
:100EC0006044802200025200694607F0D1FB84F39F
:100ED000108841B030BDC046F01F000010B5EFF3E0
:100EE000108472B680214901024807F0D1FB84F3D7
:100EF000108810BD00F01F0070B5002401E001341F
:100F0000E4B2944206D2E5180E5D4655F72EF6D1AE
:100F1000012000E0002070BDF0B5C64600B584B0E9
:100F200000AF931DDBB298465E1E0733DB08DB0083
:100F30006C46E31A9D466C46F0232370733B637046
:100F40000023A370E370207104E0CD5C581D25548C
:100F50000133DBB29342F8D3F723A35543461E096E
:100F60000136002511E00F234246134015E0811899
:100F7000615CB9540132D2B29342F8D83A000021F0
:100F8000002006F005F80135EDB2B54207D2280180
:100F9000C0B26B1CB342E6D010230022ECE7BD4682
:100FA00004B080BCB846F0BD00B5AFB0562118A85B
:100FB000FFF758FF01AB05221A70023A5A70023A45
:100FC0009A70DA70002306E01A1D18A9C85C01A9FE
:100FD00088540133DBB2552BF6D95A2201A90F20D0
:100FE000FFF79AFF2FB000BD10B5034B1868112111
:100FF00004F02EFC014810BDD80C00205C970010B6
:1010000000487047F496001070B500280DD00328F2
:1010100024D8134B8000C458200007F08BF9C0B2CD
:101020001F2800D91F2000230DE00D4B19680D4823
:10103000022204F04FF9012007E05A1CE55C0A4B3C
:101040005100CD52D3B29842F7D8013043009BB241
:101050000548C02292001343038070BD0020FCE7C6
:10106000C80C0020B6150020B415002010B5830070
:10107000084A944663441A6840246240803414400D
:101080008022520113431C60C000034B9C46604405
:10109000416010BD04C001400040014080000B4B86
:1010A0009C46604400290DD00823002A0CD004225D
:1010B0001343026853400C221A4080235B01034310
:1010C0001A6070470023F0E70022F1E704C00140F6
:1010D000002909D08000094B9C46604480239B0175
:1010E000034340221A6070478000044B9C466044D2
:1010F000C0239B01034340221A60F4E704C001406F
:1011000010B501238340D02212069362936105211A
:10111000FFF7ACFF10BD0000034B1B680220184016
:10112000431E9841C0B2704700C00640EFF31080E4
:1011300072B6034B1B68002BFBD0BFF35F8F704769
:101140002C0100D0BFF35F8F024B00221A6080F3A6
:10115000108870472C0100D0F8B506000C0015006F
:10116000FFF7E4FFE308F718F15C072222400123B0
:1011700093400B4205D1DBB20B433B70FFF7E2FF1C
:10118000F8BD2100280001F015FFF0B583B006007E
:10119000019114001F00FFF7C9FF00E00134BC42B9
:1011A0000CD8E308F518F35C0721214001228A409E
:1011B0001A42F3D1D2B21A432A7001E001246442E8
:1011C000FFF7C0FF002C02DB200003B0F0BD019B45
:1011D000002BF9D0089801F0EDFE0000002307E095
:1011E000054A9A189200BFF35F8F00211160013306
:1011F0001F2BF5D97047C04640000034054A1078CF
:10120000431CDBB21370172B02D9130010221A7083
:101210007047C046DC0C002010B582B00100054CC0
:10122000054B00931F2318222000FFF7AEFF02B0EA
:1012300010BDC0468C1A002028880010074B9B6800
:10124000103080001950BFF35F8FBFF35F8F044BE6
:101250000021196082F310887047C04600ED00E05D
:10126000240100D010B50388DA0A1C2A05D15B05D9
:101270005B1502335B00C01810BD034B034A0448E2
:10128000B12101F0FFFDC04644880010C497001052
:101290005C88001010B5091A0B1F0A4A88180A4A00
:1012A000904208D8C90706D45B105B055B0D074860
:1012B000184380B210BD064B064A0748A32101F02F
:1012C000E1FDC046FC070000FE0F000000E0FFFF4C
:1012D00094880010B89700105C88001010B5091AA7
:1012E00004394A08090B08D14905490D064B0B433F
:1012F0000380064B1343438010BD054B054A064847
:10130000AB2101F0BFFDC04600F0FFFF00F8FFFF7A
:10131000C48800108C9700105C8800100123834063
:10132000034A10681840431E9841C0B27047C04637
:1013300000E100E0002904D0034B1860034B186063
:101340007047034B1860FBE780E200E000E100E03B
:1013500080E100E010B5012383401800FFF7EAFFA9
:1013600010BD0000024B9B6810308000C0587047D1
:1013700000ED00E070B504000D00EFF3108672B6CA
:101380000C4B1B68002BFBD0BFF35F8F2000FFF7D7
:10139000E9FF094B984201D0A84205D1320029004B
:1013A0002000FFF74BFF70BD044B054A054886211E
:1013B00001F068FD240100D0CD010010D488001098
:1013C000EC9700105C880010F0B5DE4657464E469C
:1013D0004546E0B589B0814601911500EFF3108ACA
:1013E00072B66D4B1B68002BFBD0BFF35F8F6B4B4E
:1013F00000269E57002E41DB7400A419A400684803
:1014000024180622A256654B1A70664B9A684B4602
:1014100010339B00D35898461F00181A2F2839D92B
:10142000614B984530D105AF604B3B8060497300FC
:101430009B46981980005A4B984640440230FFF76B
:1014400029FF78805B4BBB80FF23BB71FD71019B43
:10145000079333005B449B00434407CF07C301233A
:101460001C43A046524641464846FFF7E7FE09B0F6
:10147000F0BCBB46B246A946A046F0BD4E4B4F4A13
:101480004F48D72101F0FEFC4E4B4C4A4C48DE2120
:1014900001F0F8FC01380C2102F0DCFE002912D129
:1014A00001239F43BB463B000027DA79AA4211D9AA
:1014B0000621595600290CDB4A005218920038497F
:1014C0001F008B18F1E7404B3C4A3D48EA2101F0F0
:1014D000D9FC1F00002F2ED005AB3C4A1A80813A60
:1014E0005A800623FB560293002B17DA384805ABC7
:1014F0009B469880029A9A71DD71019A0792381D75
:101500002100FFF7C7FEB880BE71254B720092190B
:1015100092009B185A4613CA13C3A3E7381DFFF75E
:10152000A1FE01007000801980001D4BC01804301E
:10153000FFF7B0FEDBE705AF1C4B3B801C49730097
:1015400002939B199B00164A90461A00424403924C
:10155000901CFFF79FFE7880039A101D5946FFF7F5
:1015600099FEB8801B4B5A464146521A524153438A
:101570001B0DBB71FD71019A0792029B9B199B0089
:10158000434407CF07C3114B5A461380813B538016
:1015900001231C43A04665E7240100D0CC24002091
:1015A000E00C002000ED00E0CD01001000A1FFFFE5
:1015B000100D002001BDFFFF0C890010D497001012
:1015C0005C880010348900105C890010014800001C
:1015D00001BD0000AAAA0000F0B5CE46474680B57E
:1015E00083B006000D00EFF3108872B64F4B1B68F6
:1015F000002BFBD0BFF35F8F4D4B9A683400103443
:10160000A300D7584B4B9F4207D0AF4200D18BE08D
:101610000197494BFB1A2F2B09D94246390030005C
:10162000FFF70CFE03B0C0BCB946B046F0BD3000B9
:10163000FFF774FE814600213000FFF78BFEBFF3F9
:101640005F8FEFF30581002901D08C4211D1012376
:10165000019C9C430020A368AB4212D00622A256F4
:10166000002A0DDB53009B189B00334A2000D4183E
:10167000F1E7324B324A36213248FF3101F002FCA9
:101680002000AB4249D106256557002D2BDB2A4BA4
:101690006A00521992009B189A68A260DA79E27186
:1016A0009B795BB2A371002B0FDA2748A080224BF5
:1016B0006A00521992009B18244A1178997115708A
:1016C00049463000FFF746FEA7E768004019800052
:1016D000194BC0180430FFF7C5FD0100231D180089
:1016E000FFF7D8FDE2E7002912D100280ED0FF2332
:1016F0008371174B838015490B78A3710E4A154BE4
:10170000A41A644163431B0D0B70D9E7094FF2E73C
:101710001149201DFFF7E2FDD2E7104B084A6A216C
:101720000848FF3101F0AEFB024F76E7240100D0FC
:1017300000ED00E0CD010010E00C0020D089001089
:10174000A49700105C88001001BD0000CC2400208C
:1017500001BDFFFFAAAA00001A0D0020048A001094
:1017600070B5012202432E4BD31A2F2B28D8EFF34A
:101770000583002B2BD0EFF3108C72B62949096832
:101780000029FBD0BFF35F8F254C274905002D1B97
:101790006D416943090D4CB2244989689B00C958C1
:1017A00091421BD00021032932D81D4B4A00521808
:1017B00092009B189B795BB2A3421FD00131F2E7E4
:1017C0001B4B1C4AC7211C48490001F05BFB1B4B0B
:1017D000184A92211848FF3101F054FB134A9268CD
:1017E0001749D150174B1A7882711C70BFF35F8F65
:1017F0000C4B00221A608CF3108870BD084B4A0015
:101800005518AD005D19FF26AE710F4AAA80E9E7B1
:101810000E4B084AD1210848490001F033FBC0466D
:10182000E00C0020240100D0AAAA000000ED00E096
:101830000C8A0010709700105C880010348A001029
:10184000CD010010CC24002001BDFFFF408A001014
:101850000022044B02E0044902C30132072AFAD9EC
:101860007047C04600E400E080808080024B9C46C8
:1018700061448900016070474000003410B5002BBE
:1018800002DB0260436010BD024B034A03483F2164
:1018900001F0F8FA108700102C98001064870010EF
:1018A00070B582B0060014001D00FA2292000023D9
:1018B0000698002103F046FB02000B0012196B4151
:1018C000002B09DB6846FFF7D9FF009A019B3260C5
:1018D0007360300002B070BD01225242004BF1E74C
:1018E000FFFFFF7F10B582B0040000F08BFD020007
:1018F0000B006846FFF7C2FF009A019B22606360FD
:10190000200002B010BD30B585B004000D0002A863
:10191000FFF7E8FF029A039B00952000FFF7C0FF46
:10192000200005B030BD10B50400FFF767FC0100D2
:101930002000FFF79BFFFF232371BFF35F8F10BDD4
:1019400010B50400FFF75AFC01002000FFF78EFFDE
:10195000FF23237100236371BFF35F8F10BD00006D
:10196000034B9C46614489000160BFF35F8F704761
:101970004000003410B504000120FFF74DFC0100C9
:101980002000FFF7EDFF10BD084B5B6A994209D8B4
:10199000064A926A824207D2994201D0012002E0AF
:1019A000002000E0002070470120FCE700400540D7
:1019B00010B500290AD003681B7B8B4206D38068D0
:1019C000054B9C4661440901401810BD034B044A75
:1019D00004483C2101F056FAFFFFFF0FD08A0010A7
:1019E00014990010F48A0010F8B504001700FFF7EE
:1019F000DFFF0668456839002000FFF7D9FF02685D
:101A000043680120AB4201D802D00020C0B2F8BD2B
:101A1000B242FBD8F9E7000010B5002B02DB0260F0
:101A2000436010BD024B034A03483F2101F02AFAEC
:101A300010870010E09800106487001010B582B085
:101A400004000498059912184B41002B09DB6846E5
:101A5000FFF7E2FF009A019B22606360200002B062
:101A600010BD01225242014BF1E7C046FFFFFF7F4C
:101A700010B5002908D0037B8B4205D300684B00CA
:101A80005B18033BC01810BD024B034A0348682192
:101A900001F0F8F9288B0010BC980010448B00105E
:101AA00010B5437B8B4201D1012010BDFFF7E0FF51
:101AB0008378002B01D10020F7E70120F5E770B50E
:101AC0000400857B002D01D1280070BD2900FFF79F
:101AD000CFFF4378A373002B00D1E37300238370FF
:101AE00043700370F0E70000F8B506000C00150025
:101AF000FFF7BEFF0700002C0DD0002D11D0AC4227
:101B000015D029003000FFF7B3FF84703B78002B1D
:101B100013D13D70F8BD0A4B0A4A0B486F2101F002
:101B2000B1F90A4B074A0848702101F0ABF9084B9C
:101B3000044A0548712101F0A5F943703D70E9E7B9
:101B4000888B001098980010448B0010948B001024
:101B5000A08B001070B506000D001400002914D0F1
:101B6000002A14D0436880689847002806D02200D5
:101B700029003000FFF7B8FF280007E02A00210005
:101B80003000FFF7B1FF200000E0100070BD08003A
:101B9000FCE7000070B504000D1E0CD0FFF768FFD5
:101BA0000023837043700370617B2A002000FFF7DD
:101BB000D1FF607370BD034B034A0448A52101F0B7
:101BC00061F9C046B88B0010AC980010448B00102F
:101BD00070B504000D1E0FD0FFF762FF00280BD177
:101BE000E17B00290ED1A37B002B03D1E37B002BEB
:101BF0000DD1A573E57370BD084B094A0948F6215C
:101C000001F040F92000FFF733FF4570EBE7064B8A
:101C1000034A0448FB2101F035F9C046BC8B001093
:101C200088980010448B0010E08B001010B500293C
:101C300007D003681B7B8B4203D3C068013940186F
:101C400010BD034B034A0448412101F01BF9C04673
:101C5000D08A001074980010F48A001070B5050046
:101C60000C00080000F0C8FC0949200000F008FC46
:101C7000FFF7C4FA074B9C466044800068602C75EF
:101C8000D0231B061B786B75034BA400E55070BD79
:101C9000A91D001040000034E82100200A4B1A68FA
:101CA000EFF3108172B61368002BFCD0BFF35F8F87
:101CB000054B1B68BFF35F8F00221A6081F3108809
:101CC00040BF0020002170472424002010B582B0BE
:101CD000040000F097FB02000B006846FFF79CFE33
:101CE000009A019B22606360200002B010BD70B5B5
:101CF00084B0040016001D0002A8FFF7E7FF029A57
:101D0000039B009601952000FFF798FE200004B089
:101D100070BD0000F0B583B0070001921D000AAB52
:101D20001C780BAB1E78002C0BD000682100FFF74D
:101D3000B7FE002809D0194B194A1A48672101F04B
:101D4000A1F80068FFF7BBFE0400002C02D12000C0
:101D500003B0F0BD21003800FFF72AFE019B0360AD
:101D60004560089B8360099BC36038682100FFF7CA
:101D700011FFA042EBD1387D019A2B0000F0C8FB87
:101D8000051E01D0002E04D00C9B002BDFD01D704F
:101D9000DDE73868210000F075FDF5E7F48B0010F1
:101DA000C8980010F48A0010F0B5DE4657464E463B
:101DB0004546E0B58FB00B900021794B8200D45896
:101DC000894683E029002000FFF7F2FD8046026883
:101DD0004368921BBB41002B09DD43461A685B68D0
:101DE0000B9800F095FB0023984600268AE0002B14
:101DF00001D1002AF1D10021584600F039FD070039
:101E0000A84215D143461A685B6808920993434675
:101E10009E68DB689846002E10D029002000FFF74E
:101E200005FF037899461B021F432761002069E0E4
:101E30005C4B5D4A5D488E2101F024F85C4B5A4AA8
:101E40005A48922101F01EF82369002B00D177E057
:101E5000BB4219D106980799002342428B41009258
:101E60000193089A099B0CA8FFF7E8FD0C9A0D9BBB
:101E700000210491013103910295414601910096A0
:101E80002000FFF747FF16E04A4B474A4748A12189
:101E900000F0F8FF069A079B002B01D1002A52D1CF
:101EA00020682900FFF794FE29002000FFF7BEFEFE
:101EB000037801330370002323616268BFF35F8FEF
:101EC00013608AF310880120002861D00CA8FFF766
:101ED000FDFE0C9E0D9F002200230892099362686C
:101EE000EFF3108A72B61368002BFCD0BFF35F8F3C
:101EF00023689B465D7B002D00D063E70023984656
:101F0000002600206368BFF35F8F00221A608AF307
:101F10001088002ED8D04B461F022F434146380070
:101F2000B047069007916268EFF3108A72B61368A3
:101F3000002BFCD0BFF35F8F079B002B00DA83E7F9
:101F4000079B002BA6DD2369002BA9D0BB4219D12A
:101F50000CA8FFF7BBFE0C9A0D9B06980799009002
:101F600001910CA8FFF76AFD0C9A0D9B00210491CA
:101F70000131039102954146019100962000FFF73F
:101F8000C9FE98E70B4B084A0848A42100F07AFFE5
:101F90000FB0F0BCBB46B246A946A046F0BDC04655
:101FA000E82100201C8C0010F8980010F48A001022
:101FB000348C0010408C001010B50C4B5B68002B6B
:101FC00004D00B480A21FFF751FC10BD074C094A09
:101FD00020682300102100F0B6FB032000F006FA71
:101FE00003212000FFF73AFEEBE7C046280D002052
:101FF00024240020E919001010B5064B5B68002B63
:1020000001D0044810BD044B044A05485E2100F08D
:1020100039FFC046280D00207C8C00105C98001011
:10202000F48A0010F0B5DE4657464E464546E0B508
:102030008DB0060090461F00169B9A46179B994646
:1020400018AB1B780793272302AA94466344002207
:102050001A7021E001003000FFF7E8FD00783CE055
:102060000698002B5CD0079B002B59D04946D047DF
:1020700004000D0003000B4359D0002940DB08A8E1
:10208000FFF724FE089A099B0094019508A8FFF722
:10209000D5FC089B9846099F7268EFF3108B72B6C7
:1020A000136859424B41D9B20691002BF8D1BFF3C6
:1020B0005F8F273302AA944663440493002303935B
:1020C00002934B4601935346009342463B00300037
:1020D000FFF720FE0400051EBCD17368BFF35F8FBD
:1020E000002119608BF31088002D17D0272302AA36
:1020F000944663441B78002BB2D100022043B0E722
:1021000000236242AB410092019342463B0008A883
:10211000FFF794FC089B9846099FBDE701204042C9
:102120000DB0F0BCBB46B246A946A046F0BD06982D
:10213000F6E7F0B5C64600B584B00500884616003F
:102140001F000AAB1C78FFF757FF02940197009617
:102150002A004346FFF766FF04B080BCB846F0BDD6
:10216000F0B5C64600B505000C1E42D04268EFF33C
:10217000108772B61368002BFCD0BFF35F8FE6B2F6
:102180002B68984631001800FFF78AFC00282AD0F7
:102190002B69A34213D0240AE4B231002800FFF7D0
:1021A00045FD0378A34211D000206B68BFF35F8F19
:1021B00000221A6087F3108880BCB846F0BD0E4B31
:1021C0000E4A2C210E48FF3100F05CFE31004046E3
:1021D00000F058FB0028E8D10A4B084A992108482A
:1021E000490000F04FFE2B69A342DED100232B6192
:1021F000DBE70020E0E7C046A08C00104498001008
:10220000F48A0010C48C001010B50400FFF7F4FE2F
:102210002100FFF7A5FF10BD30B587B004000D0009
:10222000EFF30583002B20D106225242D317121957
:102230006B418B4202D803D1824201D90022002394
:1022400004A8FFF7E9FB02A8FFF740FD02980399F5
:10225000049A059B121A8B41002B0BDC08D020003E
:10226000290000F0DBF807B030BD144800F0A2FEF2
:10227000002AF4D0124A0498059900230093FFF72E
:1022800058FF002813DAEAE70E4B1A68EFF31081C3
:1022900072B61368002BFCD0BFF35F8F094B1B682D
:1022A000BFF35F8F00221A6081F3108820BF04986B
:1022B0000599FFF769FB0028E6D0D0E7C88C00102D
:1022C0009D1C00102424002000B583B002000B00E8
:1022D0006846FFF70CFD00980199FFF79DFF03B0DA
:1022E00000BD10B5FA2292000023002102F02AFE60
:1022F000FFF7EAFF10BD000030B583B005000C0009
:10230000EFF30583002B0FD10B4A00230093FFF757
:1023100010FF00280BDD20BFFFF776FF280021000B
:10232000FFF732FB03B030BDFFF72EFBFAE72800C2
:102330002100FFF729FBF5E79D1C001010B5002BCD
:1023400002DB0260436010BD024B034A03483F2199
:1023500000F098FD108700103C9900106487001071
:1023600070B5EFF305801038EFF3108C72B6194B8F
:102370001B68002BFBD0BFF35F8F0122130083404B
:1023800015494B6315490B60154909780C00C44089
:10239000224213D0104A546A124A8500AA58944225
:1023A00005D3114AAA580E4C9943217007E00A4AF6
:1023B000031D9B0099589950002200E00022BFF3B2
:1023C0005F8F044B002119608CF31088002A00D025
:1023D000904770BD280100D0004005403C7005408A
:1023E000D2240020AC2400202019002010B50100C8
:1023F000024A034B1800FEF7AFFE10BD188D001007
:10240000CB240020044B5B6A034A906A1900536A8C
:102410009942F9D17047C04600400540084B5B6ABD
:1024200001E0074B5B6A8B42FBD301E0044B5B6A24
:102430008B4203D1024B9B6A8342F7D37047C0465D
:1024400000400540F0B583B004000D00FFF7DAFF4F
:1024500006000F0022002B0092197B41994202D8FE
:1024600004D1904202D901225242D3176846FFF7A5
:1024700065FF00980199FFF7D1FF03B0F0BD0000A0
:1024800070B504000E00EFF3108572B61B4B1B688D
:10249000002BFBD0BFF35F8F002E1CD02000FEF777
:1024A00061FF174B83420BD019002000FEF762FF3B
:1024B00001212000FEF74EFF0123A340114A1360C3
:1024C000114BA400E650BFF35F8F0C4B00221A6043
:1024D00085F3108870BD0C4BA2000021D150012261
:1024E000A2400A490B7893430B7005492000FFF77F
:1024F00073F800212000FEF72DFFE4E7280100D04B
:10250000612300103860054020190020D2240020EB
:10251000F0B5DE4600B584B00400150001921E003F
:102520000293FFF76FFF03958E4202D84ED185428A
:102530004CD9EFF3108B72B6274B1B68002BFBD0E6
:10254000BFF35F8F254A17780125A540EBB23B43C7
:102550001370234B5D63221D92000199D150214AD3
:10256000A100029888501B6A2B4212D11C4B1B6C95
:102570002B4208D00020BFF35F8F174B00221A6058
:102580008BF3108823E0184B184A1948C52100F036
:1025900079FCFFF737FF8E4214D802D1039B8342A8
:1025A00010D80E4B1B78BB420ED00D4B1D625D63E5
:1025B0001F222240012393400E4A1360074B1F70D5
:1025C0000120D8E70020D6E70120D4E7012004B09D
:1025D00080BCBB46F0BDC046280100D0D2240020FC
:1025E00000400540AC2400203C8D001020990010D4
:1025F000608D001080E200E0EFF3108C72B60B4BA0
:102600001B68002BFBD0BFF35F8F01238340084A78
:10261000136208490A789A430A70BFF35F8F034B2D
:1026200000221A608CF310887047C046280100D041
:1026300000400540D224002010B5002908D0037BBB
:102640008B4205D300684B005B18033BC01810BDDC
:10265000024B034A0348682100F014FC288B001049
:1026600094990010448B0010F8B506000C0015007A
:10267000FFF7E2FF0700002C0DD0002D11D0AC4277
:1026800015D029003000FFF7D7FF84703B78002B6E
:1026900013D13D70F8BD0A4B0A4A0B486F2100F078
:1026A000F1FB0A4B074A0848702100F0EBFB084B8E
:1026B000044A0548712100F0E5FB43703D70E9E7ED
:1026C000888B001080990010448B0010948B0010B0
:1026D000A08B001070B506000D001400002914D066
:1026E000002A14D0436880689847002806D022004A
:1026F00029003000FFF7B8FF280007E02A0021007A
:102700003000FFF7B1FF200000E0100070BD0800AE
:10271000FCE770B505000023437301338373037B2B
:10272000C373012406E021002800FFF785FF013470
:10273000E4B24470297BA142F5D82800FFF77CFF62
:102740000023437070BD10B5017342608360FFF7D2
:10275000E0FF10BDF0B5C64600B505000C1E03D164
:10276000200080BCB846F0BDFFF766FF4678002E1B
:10277000F6D031002800FFF75FFF47780023984626
:10278000437021002800FFF757FF43464370320093
:1027900021002800FFF79EFF040039002800FFF702
:1027A000D9FF020021002800FFF794FF0400D7E7BB
:1027B000F0B5C64600B504000D001700002927D06B
:1027C000FFF73AFF4378002B28D18378002B2BD1D9
:1027D00001782000FFF7BEFF06008046002F0AD0D8
:1027E000E17B002926D1A37B002B03D1E37B002BC7
:1027F00025D1A573E5734346002B26D1290020007F
:10280000FFF71AFF00234370300080BCB846F0BDCC
:10281000114B124A1248382100F034FB114B0F4A79
:102820000F483A2100F02EFB0F4B0C4A0C483B217D
:1028300000F028FB2000FFF7FFFE4570D3E70B4BAD
:10284000064A0748422100F01DFB31002000FFF737
:10285000F3FE00238370D1E79C8D00106C9900106B
:10286000A48D0010D88D0010008E0010E08B001099
:1028700070B504000A00457B2900FFF799FF6073DB
:10288000280070BD70B506000C1E40D0437B8B4203
:1028900007D0FFF7D1FE05008178002906D100207E
:1028A00036E00121FFF7E4FF012031E03000FFF7BF
:1028B000C3FE0178A1420DD03000FFF7BDFE417884
:1028C000A1420AD00029F7D1124B134A13486B31A9
:1028D00000F0D8FA6B78037001E06B784370002346
:1028E000AB706B70012221003000FFF761FF020026
:1028F000717B814205D03000FFF7ECFE7073012040
:1029000006E0074B044A0548712100F0BBFA00209D
:1029100070BDC046408A001054990010A48D00106C
:10292000248E001070B5046BE30701D4200070BD45
:1029300002003032C0239B0113430A4A1A60456AE1
:10294000836AAD01ED18AD02062000F0C5F9064915
:1029500001F080FC0100280001F07CFC0021FFF761
:1029600071FDE3E7010300004E0E000070B50400A6
:102970000E001500FFF7D6FF22002C32E36A5E40FE
:10298000354080235B0113431D60206370BD000050
:1029900070B505000C00062000F09EF9C000210073
:1029A00001F058FCC60908D00E4B9E4216D87F2372
:1029B0000340013334005E0800E001246C62AE6223
:1029C000002200212800FFF7D1FF062000F084F943
:1029D0008000A101891901F03DFC70BD0026024C68
:1029E000ECE7C046FEFF0000FFFF000010B5053910
:1029F0004901013AD2001143002B09D002220A43B7
:102A0000012B07D0002111436E22FFF7AFFF10BD4D
:102A10000022F4E70421F6E710B5002900D01021C8
:102A20001022FFF7A3FF10BD002909D00A22064B90
:102A30009C46604443425841044B4000C252704798
:102A400080225200F3E7C0460080FCBFBC24002077
:102A500070B505000C00062000F03EF9061E27D0D8
:102A6000164B9D4226D08022D203154B1A60154B7F
:102A70001A60154B9B6811009943FAD10021280078
:102A8000FFF7D2FF21002800FFF782FF0600002396
:102A9000012208212800FFF7A9FF2A002C328023F9
:102AA0009B01134310221A60084B2B630323AB6472
:102AB000300070BD80221204D7E7C046008003407A
:102AC00000E0004000F0004000C0004001030000B2
:102AD000F8B5DE4657464E464546E0B506000F00BF
:102AE00015000A9A934250D31A0E92461B0298463A
:102AF0000A9A00234046514601F0EAFB81467400E1
:102B0000A419A4002F4B9C4664446368834200D2FE
:102B10006060331FDBB29B46012B3CD9C0239B0175
:102B20002343802212011A60274BB200D15800299A
:102B300007D0586901F08EFB013043001B18033B9E
:102B4000FDD26D0123685D40E0222A4080235B01B5
:102B500023431A605A46012A28D980239B01234324
:102B6000802212011A604B4663604A4600234046A9
:102B7000514601F0ADFB144BB60098510120F0BC5A
:102B8000BB46B246A946A046F8BD104B104A1148B4
:102B9000332100F077F9012FC0D1C0239B012343DB
:102BA00003221A60A368DB07FCD5CAE721687940D5
:102BB00003220A401A60A3680125BD401D42FAD0D5
:102BC000CBE7C04600800040901A0020448E0010E1
:102BD000A0990010588E001030B583B00C2000F082
:102BE00011F9FEF799FA00280DD0002304E02E4ACF
:102BF00099002E4888500133092BF8D92A4B2C4ACA
:102C00005A6203B030BD2B4B00229A6700F002F9E4
:102C1000294B01221A60274B5B6C012BFBD1274B00
:102C200003221A60234B9B6B012BFBD101330093D2
:102C30000433234A0121234800F054F8052300936C
:102C4000214A0121214800F04DF8214B0093002238
:102C500002210420FFF73CFF1E4D00952B000022AF
:102C600001210520FFF734FF104C009423000022BF
:102C700000210720FFF72CFF0094230000220021F1
:102C80000820FFF725FF0A4B0093230000220021B4
:102C90000920FFF71DFF00952B00002200210620D0
:102CA000FFF716FFADE7C046901A0020006CDC026B
:102CB0001BB70000008000403CB0004030B0004036
:102CC000002F685900800240008C864700C00240F7
:102CD000001BB70040597307014B8000C058704774
:102CE000901A0020F0B5C64600B504000E0017008B
:102CF0001D00374801F0AEFA8046364BFA18364BC5
:102D00009A4239D80100380001F0A4FA0200103AC2
:102D100098235B009A4235D86B1E062B38D8069B49
:102D2000013B062B34D83F09474537D32D04069B7A
:102D30001B031D432368002B36DB284B9C4244D0E9
:102D400080235B01264A1360264A1360264A926854
:102D500019009143FAD12660A060221DC0239B0177
:102D6000134321221A602268002AFCDAE560082257
:102D70001A6080BCB846F0BD1C4B1D4A1D4811218D
:102D800000F080F81C4B1A4A1A48192100F07AF812
:102D90001A4B174A17481C2100F074F8184B144AB4
:102DA0001448232100F06EF822683F231340B342F9
:102DB000C3D1A3681B051B0D8342BED1E368EE227D
:102DC000D2021340AB42B8D1D3E780239B01B9E7CD
:102DD000001BB70080E84BD380F8A93200C0024046
:102DE00000E0004000F0004000C00040988E00105D
:102DF000B0990010F88E0010308F00104C8F00102A
:102E0000988F001080239B000343014AD3627047D0
:102E100000800540074BAA2212011A602132FF32BE
:102E2000DA60054B054A1A60024B5B68002BFBDA3F
:102E30007047C046004002400060024000B0FA0007
:102E400000BEFDE703000A4A1268002A08D0084ABB
:102E50001068C318074A9A4206D3054A13607047A0
:102E6000034A05491160F2E701204042F7E7C046F6
:102E7000781B002000000420D424002010B5FFF7A8
:102E8000DFFF000030B583B00D001900002A0BD021
:102E9000074B084C019200932B000200200002F027
:102EA000ADFB0120FFF7CCFF034B1A00F1E7C04652
:102EB000B48F0010C48F0010C08F001070B52B4B62
:102EC0002B4A1A602B4B2C4A1A602C4B9A682A4BBF
:102ED0009343FAD12A4C01E008CC9847294B9C42F5
:102EE000FAD3FFF779FE234B274A1A60234B9B68DE
:102EF000DB43DB01FAD1254B40229A675A671A67F8
:102F0000DA66234C09E0234B234A24488721FFF744
:102F1000B9FF2000FEF707FD0834214B9C4209D27F
:102F20002368002BF5D0012BEDD12000FEF708FD22
:102F30000834F2E71B4DA9681B4CC022200002F0A8
:102F4000C9F9AC60EFF30583002B00D000BEFEF79B
:102F500045F9FEF77DFCFFF72FF8144C01E008CC93
:102F60009847134B9C42FAD370BDC04600E0004026
:102F7000BFCDFBFE00F00040FE7F3C0000C00040E3
:102F8000F012002000130020FFFFFF0100F00140BD
:102F9000E8120020F48F0010BC990010149000106B
:102FA000F012002000ED00E00000002000130020DF
:102FB0000C1300200FB400B583B0084802F0EEFAFD
:102FC000049B002B07D005A90191180002F0F6FA26
:102FD000034802F0E3FA0120FFF732FF509000109F
:102FE00060900010704710B5002802D00B68496847
:102FF000984710BD0100002007E083001B185B000C
:10300000501C08601078C01830380A681378303BBC
:10301000DBB2092BF1D97047F0B5DE4657464E4674
:103020004546E0B583B093461F000C9B9A460D9C25
:103030000E9B99460F9B9B0703D0B8460F000600D6
:1030400022E00192A34688464E46B9460700B442A4
:1030500007D2551C4B4641462020B84701342A0070
:10306000F5E73D004F465C46019B9B46B146464610
:10307000B84637002E0007E0013C551C5346185D4A
:1030800043463900B0472A00002CF5D135003E00F8
:1030900047460F9B9B0707D4100003B0F0BCBB460C
:1030A000B246A946A046F0BDB0464E46B9462F00EE
:1030B0005D46531BB342EFD2541C4B464146202081
:1030C000B8472200F5E7F0B5CE46474680B585B053
:1030D000944698460C9D0D9C0EAB1B789946109A11
:1030E000119B129EB7071CD4002B0CD0F7070AD5F2
:1030F0004F46002F02D10C37374204D0013B02E08B
:1031000030272F550134944201D21F2CF8D9F707EC
:1031100007D59C4205D21F2C03D830272F550134E8
:10312000F5E7F70612D5770505D4002C03D09442B5
:1031300021D09C421FD00F9A102A32D00F9A022A17
:1031400037D01F2C0AD830222A5501341F2C05D81D
:103150004A46002A33D02D222A5501340396029381
:103160000194009543466246FFF756FF05B0C0BC88
:10317000B946B046F0BD621E012C10D00F9F102F33
:103180000BD014000F9A102AD8D1B206D6D51F2C16
:10319000D4D858222A550134D3E7023CCBE7140097
:1031A000C9E7B206EED41F2CECD878222A55013498
:1031B000C7E71F2CD2D860322A550134C1E7720705
:1031C00003D52B222A550134C8E73207C6D5202261
:1031D0002A550134C2E7F0B5DE4657464E4645460D
:1031E000E0B593B081468A46089209931CAB10CB98
:1031F0001B789B461E9D219B9846002C03D11023D3
:1032000042469A4390468023DB0046461E40424693
:103210001A4212D0002C22D000260EE03033D9B250
:10322000771C0AAB99552900200001F013F8AC4235
:1032300016D31F2F14D83E0004002900200001F0EF
:1032400009F8CBB2092BE9D94246920605D54121AE
:10325000C918C9B20A39C9B2E2E76121F8E7270003
:1032600043460693209B05931F9B049303955B465F
:10327000029301970AAB0093099B089A514648466E
:10328000FFF721FF13B0F0BCBB46B246A946A046EB
:10329000F0BDF0B5DE4657464E464546E0B597B020
:1032A0000A900B910C929A46209B9946219F22AA44
:1032B00013789B46249B0993259C289B98464A4655
:1032C0003A4302D11032934398468022D2004546B9
:1032D0001540434613420AD04A463A4341D000259E
:1032E0002E0053460D934D46099B9A461BE02E0037
:1032F00053460D934D46099B9A4614E03033DAB29B
:10330000731C99460EAB9A5552462300280039008B
:1033100000F0DEFFBC4226D819D04B461F2B1CD82C
:103320004E4605000F00524623002800390000F0E9
:10333000CFFFD3B2092BE1D94246920605D54122EF
:10334000D218D2B20A3AD2B2DAE76122F8E7AA4535
:10335000E3D94E460D9B9A4608E04E460D9B9A4691
:1033600004E0002602E04E460D9B9A464346069333
:10337000279B0593269B0493099B03935B4602932B
:1033800001960EAB009353460C9A0B990A98FFF7DF
:103390009AFE17B0F0BCBB46B246A946A046F0BDA7
:1033A000F0B5DE4657464E464546E0B591B08046FC
:1033B00089460C929A461A9C1B9D22002B002000E5
:1033C000290001F010FA002800D0ECE0012252425E
:1033D000D44B2000290001F001FA002800D0E2E0DF
:1033E00001225242D04B2000290001F0E1F90028CF
:1033F00000D0D8E0002200232000290001F0D8F9F5
:10340000002800D0E4E0069407958023DB001E9A94
:103410001A400D921E9A1A4201D106231C93069857
:10342000079902000B000892099303000A00024367
:1034300000D1D9E0080D4005400DBC4EB4466044B3
:103440000A03120B1E00BA4B13431F0001F0DEF9F2
:10345000B84AB94B01F069F9B84AB94B01F03EF9E5
:10346000089009910022B74B3000390001F02DF986
:10347000B54AB64B01F059F902000B0008980999BA
:1034800001F02CF901F0DAF9834601F0BFF90600EA
:103490000F00AF4AAF4B01F048F90022AE4B01F0EC
:1034A0001DF901F0CBF90890AC4AAD4B3000390062
:1034B00001F03BF906000F00089801F0A7F9A94AAE
:1034C000A94B01F032F902000B003000390001F085
:1034D000FCF806000F0002000B0001F026F90A902C
:1034E0000B91089BA14A9446634400210022089155
:1034F00009921B0509930023089332003B0030001A
:10350000390001F0EBF80E900F9132003B000020E3
:103510008021C90501F0D9F806000F000022944B64
:103520000A980B9901F0E3F80022924B01F0D6F8CB
:1035300002000B000A980B9901F0D9F800228E4B7B
:1035400001F0CCF802000B000A980B9901F0CFF8BB
:1035500002000B003000390001F0C0F802000B003F
:103560000E980F9901F0C3F80022714B01F0B6F8E4
:10357000089A099B01F0D9F806000F0008960997F0
:10358000069A079B01F02AF900282FD001235B42FD
:103590009C46E3440022774B3000390001F0A7F845
:1035A0000890099122E01E9B04931D9B03931C9B92
:1035B00002930094019553460C9A4946404600F008
:1035C000FFF811B0F0BCBB46B246A946A046F0BD1C
:1035D0000021002206910792069480231B069C4638
:1035E000AC446346079310E700239B465B46633376
:1035F000C62B20D804261E9B1B0528D5089A099B9C
:10360000190011430FD05D4A5D4B0698079901F0F0
:10361000DDF800287AD000225A4B0698079901F06D
:10362000C7F8002872D01C9B5B4506DD5A469B1AE2
:10363000013B1C9303E00526DDE700231C93802358
:10364000DB001E9A1A431E92002600239B461D9BF8
:103650009E4265D29F1B02231E9A1A400A921E9A0E
:10366000134202D0002E00D000275B46002B07D06B
:10367000089A099B0698079901F039F80690079176
:10368000002200232000290001F092F8002800D039
:103690007CE03D4B1E9A1340049303971C9B0293BE
:1036A000069B079C0093019453460C9A494640465A
:1036B00000F086F8002E00D183E71E9B9B0671D593
:1036C0004525441C5346020049462800C0475A4637
:1036D000D317D2185A4005230593013E04960023C0
:1036E00003930A3302935B46DB0F01930092534628
:1036F000220049464046FFF76EFD0A9B002B00D191
:103700005FE7020047460C9E1D9D53E01C9B002B6B
:103710009DD00D9B002B9AD01C9B013B1C9396E7E0
:10372000002798E7FFFFEF7FFFFFEFFF01FCFFFFA0
:103730000000F03FFB799F501344D33FB3C8608B28
:10374000288AC63F0000F83F61436F63A787D23FD6
:1037500071A379094F930A400000E03F1655B5BBAD
:10376000B16B0240EF39FAFE422EE63FFF03000044
:1037700000002C4000002440000018402D431CEBAA
:10378000E2361A3F80842E41FFF7FFFF069C079D1B
:103790002200290080200006844661440B00069226
:1037A000079376E765258CE7541C5346494620204D
:1037B000B8472200931BAB42F6D3100001E7C04686
:1037C000F0B5DE4657464E464546E0B595B0069004
:1037D000079193469946209F1E9A1F9B100019003F
:1037E00001F001F8002831D101225242BF4B1E984E
:1037F0001F9900F0DDFF002837D101225242BC4B57
:103800001E981F9900F0EAFF00283DD10022B94B15
:103810001E981F9900F0E2FF002850D10022B64BFD
:103820001E981F9900F0C4FF002848D100220023F1
:103830001E981F9900F0BCFF002850D10023984625
:10384000229B5B0500D4B6E0002458E0229B039342
:10385000219B029303230193A84B00934B465A46A6
:1038600007990698FFF7D8FB0EE1229B0393219B53
:10387000029304230193A24B00934B465A460799A7
:103880000698FFF7C9FBFFE00423229A1A40229909
:103890000B4210D09B4B002A0FD004222299039197
:1038A00021990291019200934B465A460799069836
:1038B000FFF7B2FBE8E0944BEDE70322EEE7229B33
:1038C0000493219B039302971E9B1F9C00930194DA
:1038D0004B465A4607990698FFF762FDD4E01E9AB8
:1038E0001F9B0020002100F0F0FE1E901F9101237D
:1038F0009846A5E70CAB30221A55013F01341F2C26
:1039000001D8092FF6D81E981F9900F097FF0500DF
:1039100000F07CFF02000B001E981F9900F0D5FEFE
:103920007A4BFA009B181A685B680A920B9300F0B6
:10393000FCFE0890099100F0A5FF060000F062FF70
:1039400002000B000898099900F0BFFE0890099149
:1039500000226F4B00F042FF00282ED001363000CD
:1039600000F050FF02000B000A980B9900F026FFB0
:10397000002801D001350026002F2CD1280000F0AE
:1039800045FF02000B001E981F9900F09EFE0600E6
:103990000F0000225E4B00F00BFF002846D10022F2
:1039A0005B4B3000390000F019FF00283ED1EB07D7
:1039B0003CD501353AE0062746E70022544B0898EB
:1039C000099900F0F5FE0028D6D1002E01D0F307AA
:1039D000D2D50136D0E7AA461F2C11D8013F0A21C3
:1039E000300000F037FC651C30310CAB19550A2152
:1039F000300000F02FFC092E0ED906002C00EBE75A
:103A000055461F2C0CD87B1E002F09D00CAA302144
:103A100011551F000134F4E72B0055461C00F0E758
:103A20001F2C03D80CAB2E221A5501341F2C10D892
:103A30000A21280000F0E6FB661C30310CAB19555A
:103A40000A21280000F0DEFB051E01D03400EDE75E
:103A500034000323229A1340012B1CD01F2C06D8BC
:103A60004346002B32D00CAB2D221A550134229B39
:103A70000393219B029301940CAB00934B465A464F
:103A800007990698FFF7C8FA15B0F0BCBB46B246D6
:103A9000A946A046F0BD219B002B13D04346002B26
:103AA00002D10C3313420FD0219B013B219319000B
:103AB00003E00CAB30221A5501348C42CED21F2CBD
:103AC000F7D9CBE72199F8E72199F6E7229B5B0725
:103AD00004D50CAB2B221A550134C8E7229B1B07D7
:103AE000C5D50CAB20221A550134C0E7FFFFEFFF0C
:103AF000FFFFEF7F65CDCD4165CDCDC1709000104A
:103B000074900010649000106C900010689B00107E
:103B10000000E03FF0B5DE4657464E464546E0B56C
:103B200093B08246884693461193002900D10DE355
:103B300000255646119B1878002800D109E3252856
:103B400009D06C1C5B462A004146B047119B0133EB
:103B500011932500EEE701331193002720E00123A4
:103B60001F4301321192012418E002231F43013246
:103B70001192012412E004231F4301321192012407
:103B80000CE008231F4301321192012406E01023A8
:103B90001F4301321192012400E00024002C09D0BF
:103BA000119A1378203BD9B21029F6D88B00C84956
:103BB000CB589F46119B1A781300303BDBB2092B80
:103BC00010D92A2A13D00B94119B1A782E2A1ED0B2
:103BD000119A1378683BD9B2122959D88B00BD4984
:103BE000CB589F4611A8FFF705FA0B90ECE71C9BFA
:103BF0001A1D1C921B68002B04DB0B93119B0133D5
:103C00001193E1E7022217435B420B93F6E7802210
:103C1000D20017435A1C11925A781300303BDBB282
:103C2000092B0BD92A2AD3D11C9B1A1D1C921C6864
:103C3000002C08DB119B01331193C9E711A8FFF792
:103C4000D9F90400C4E70024F4E780235B003B4378
:103C5000511C119151786C2901D01F0018E0C0232C
:103C60009B001F430232119212E080233B43511C00
:103C700011915178682901D01F0009E0C0231F432A
:103C80000232119204E080235B001F430132119243
:103C9000119B1878672818D8252800D24CE2030019
:103CA000253BDAB2422A00D946E293008A4AD35829
:103CB0009F4680239B001F4301321192E8E7802337
:103CC0005B001F4301321192E2E7782800D933E20A
:103CD000692800D230E20200693AD2B2012393404F
:103CE0007E4A134211D11A0600D500E25B0500D4CA
:103CF00022E21C9B1A1D1C921B689A46002C00D0C5
:103D0000B2E10122524253468EE16F280ED006D80E
:103D100058283DD0622804D102239C4608E0782828
:103D200039D010239F43063B9C4601E008239C4664
:103D3000582833D0692803D0642801D00C22974337
:103D40007A0501D50122974369282AD0642828D012
:103D5000BA0500D59FE0FA0500D5C1E07A0600D487
:103D6000D3E01C9A111D1C911168FF220A4005978F
:103D70000B9B0493039463460293002301930092E8
:103D80005B462A0041463000FFF725FA050027E090
:103D900010239C46CCE710239C46C9E720221743FA
:103DA000C8E7BA0520D4FA0550D47A0666D51C9A1D
:103DB000111D1C911168FF220A40D01711184140B3
:103DC00005970B9B0493039463460293D20F0192D1
:103DD00000915B462A0041463000FFF7FCF90500E0
:103DE000119B01331193A5E61C9A073207218A43E0
:103DF000110008311C91116853689946DB170C9328
:103E00000D930C9A0D9B100048400E904A4653406B
:103E10000F930E980F990C9A0D9B801A99410E9052
:103E20000F9108970B9B0793069463460493002316
:103E300005934B46DA0F0292009001915B462A00EF
:103E400041463000FFF725FA0500C9E71C9A111D0D
:103E50001C911268D0171118414005970B9B0493D1
:103E6000039463460293D20F019200915B462A00AD
:103E700041463000FFF7AFF90500B1E73A0605D536
:103E80001C9A111D1C910023D25E96E71C9A111DED
:103E90001C91126891E71C9A073207218A4311008E
:103EA00008311C9108970B9B079306946346049373
:103EB00000230593029353681268009201935B46B6
:103EC0002A0041463000FFF7E4F9050088E7C046C4
:103ED000CC990010109A00105C9A001041900000DC
:103EE0001C9A111D1C9105970B9B04930394634628
:103EF000029300230193136800935B462A00414616
:103F00003000FFF768F905006AE73A0606D51C9A03
:103F1000111D1C9112681204120C28E71C9A111D25
:103F20001C91126823E7462819D01C9B07330722EF
:103F300093431A0008321C9204970B9A039202943E
:103F40001A685B68009201935B462A004146300084
:103F5000FFF736FC0500119B01331193EAE520239E
:103F60001F43E2E7672801D0472802D180231B01C5
:103F70001F43452801D0472801D120231F431C9B04
:103F80000733072293431A0008321C9204970B9AB6
:103F9000039202941A685B68009201935B462A00C0
:103FA00041463000FFF7FCF90500119B01331193E6
:103FB000C0E502231A003A4091463B421DD001243D
:103FC0001C9B1A1D1C926F1C18785B462A004146E8
:103FD000B0474B46002B14D1119B013311933D0088
:103FE000A8E5571C5B4641462020B04723003A0015
:103FF0005C1C9D42F5D81500E2E701232A000B9DC9
:10400000F6E73A00B1460B9E06E0571C5B46414678
:104010002020C8472C003A00651CA642F5D817009E
:104020004E46D9E701330A001978002902D0511E03
:10403000002AF7D152469B1A8022D2003900114043
:104040008946174202D0A34200D923000222110060
:10405000394010913A4209D02A00250057469A4625
:1040600033004E46994621E022004CE62A004546A0
:10407000A04606E0541C5B4629002020B0473B00C8
:1040800022005F1C0B999942F4D84446A8463B0095
:10409000250057469A4633004E46994606E01D00D5
:1040A0000137541C5B464146C84722003878002837
:1040B00004D0002EF4D06B1E002DF0D11500534615
:1040C0004E46109A002A03D1119B0133119331E51A
:1040D0000B9F2A0006E0551C5B4641462020B04756
:1040E00023002A005C1C9F42F5D81500ECE7212331
:1040F0003B431C9A111D1C911268059308230493DD
:104100000394083302930023019300925B462A0034
:1041100041463000FFF75FF80500119B0133119312
:1041200008E56C1C5B462A0041462520B047119BE0
:10413000013311932500FDE46C1C5B462A004146C7
:10414000B047119B013311932500F3E40A4B9A46C3
:10415000EEE4B2465D450DD35B465A1E5B464146D2
:104160000020D047280013B0F0BCBB46B246A94699
:10417000A046F0BD2A00F1E7E52F001000B585B09C
:104180000290039101210448009313004A4202A9BE
:10419000FFF7C0FC05B000BDE72F00100148042167
:1041A000014B1847500D0020CD41001010B5010003
:1041B00018231B8814221088984710BD10B50100E1
:1041C00018231B8816221088984710BDF0B5C646E4
:1041D00000B507000E0000250123984600E00135D8
:1041E000B5420AD2AC003C192068FFF7DFFF20601F
:1041F0000028F4D100239846F1E7404680BCB84639
:10420000F0BD0000124A936F9B0815D29066D166EC
:10421000002905D0FFE7FFE7FFE7516F106F7047F8
:1042200004B580210906C2175140002800D0C843B8
:1042300004F026FA002104BDF0B5146E556E576FD8
:10424000166FFFF7E3FF1466556657671667F0BDF4
:10425000000000D0114A936F9B0813D2106651667C
:10426000002905D0FFE7FFE7FFE7516F106F7047A8
:1042700004B5002801D00020C04304F001FA002159
:1042800004BDC046F0B5146E556E576F166FFFF73C
:10429000E5FF1466556657671667F0BD000000D04D
:1042A00094464A4A926F9208624601D228E0C0467C
:1042B000F0B5464E346E756E776F366F00F020F8AD
:1042C0009446424A14665566576716676246F0BDC3
:1042D00094463E4A926F9208624601D254E0C0462C
:1042E000F0B53A4E346E756E776F366F00F04CF85D
:1042F0009446364A14665566576716676246F0BD9F
:10430000002B24DB11D000293EDA00B5C94340421E
:1043100000D1013100F038F8C943404200D10131E9
:10432000DB43524200D1013300BD002AEBD100280B
:1043300001D1002905D00020C90FC90701D1C04310
:10434000410800B504F084F90022002300BD00B547
:1043500000290ADBDB43524200D1013300F014F89C
:10436000C943404200D1013100BDC943404200D1A0
:104370000131DB43524200D1013300F005F8DB4349
:10438000524200D1013300BD002923D1002B18D1A6
:10439000002A0CD0BC460D4F38667A6600210023F7
:1043A000FFE7FFE7FFE77A6F386F6746704700283F
:1043B00001D00748010000B504F04AF900220023AB
:1043C00000BD02000B00002000217047000000D05B
:1043D000FFFFFFFF002B00D0BFE0130C28D1002A05
:1043E000E7D080B4114F39667A66FFE7FFE730B453
:1043F000040C7B6F396F1B0423433B667A66FFE72F
:10440000FFE7FFE7C04684B27B6F3D6F1B04234389
:104410003B667A66FFE7FFE7C04600232C042D0CBD
:104420007A6F386F00196941B0BC7047000000D046
:10443000F0B594460025140E01D112020835140F70
:1044400001D112010435940F01D192000235D40F2D
:1044500001D152000135D40B0134254F7C66254C27
:104460003C660E0C93B2FFE7FFE7FFE73C6F664345
:10447000360C7703BE467343DF0B5B04C01AB941A9
:10448000130C7343DB18C91ACE086643360CB644C6
:1044900093B273431F0F1B01C01AB941130C73432E
:1044A0001F0B1B05C01AB941860D8F023E436643A0
:1044B000360C092D24DB520A7243801A7703460A10
:1044C0006643360C16235B1BDE40DF40BF19644693
:1044D0006643821B7046043506330100D940A8406C
:1044E000C01900D30131A24206D20023F0BD000062
:1044F000000000D0FFFFFFFF121B0130F3D3F1E7F4
:1045000009277F1BFE406446A2B27243801A00D284
:104510000139220C7243130C1204821A99410B00C8
:104520007046043513370100F940A840801900D3C4
:104530000131002B02D1A2420AD2F0BD013000D3DA
:104540000131121BFAD2013BF8D1A24200D2F0BDD8
:10455000013000D30131121BF7E7F0B51C0C00D07D
:1045600080E00CB400251C0A04D11B02160E334354
:10457000120208351C0B04D11B01160F3343120124
:1045800004359C0B04D19B00960F334392000235F7
:10459000DC0B02D192185B4101351C009718644175
:1045A0000134464F7C66464C3C660E0CFFE7FFE745
:1045B000FFE7C0463C6F6643360C7703BE4697B2B2
:1045C0007743C01B00D20139C01B00D201399FB212
:1045D0007743C91BC91B170C77437E04FF0B801B55
:1045E000B941CE086643360C0C2D33DBB644120BB2
:1045F0001F053A431B0B97B27743C01B00D201390A
:104600009FB27743C91B170C77433E043F0C801BB6
:10461000B941860D8F023E43664329277F1BFE402A
:104620000C3D7746AF40BF1930BCA2B2ABB272436B
:104630007343801A9941220C7243130C1204801A9E
:10464000994102000B000137001BA941F9D2781EE5
:104650000021F0BD0C277F1BFE4077467F0BAF404B
:10466000FF19E0E700245D1C07D0144F7D66396612
:10467000FFE7FFE7FFE7FFE73C6F95B29EB26543B8
:104680006643401BB141150C1E0C6543664336045E
:104690002F0C3E432D04401BB141994204D202002D
:1046A0000B0020000021F0BD01D19042F7D3801A09
:1046B000994101349942F2D3F6E70000000000D09E
:1046C000FFFFFFFF48404140484018B41B4B5B6868
:1046D000FC46019308BD04DFBB49001018B4174B1A
:1046E0001B68FC46019308BD00DFC54900109446D5
:1046F000134A926F920809D2624618B40F4BDB68D6
:10470000FC46019308BD0CDF7D4C00100C4AF0B54F
:10471000146E556E576F166F6246FFF7EEFF084A2C
:104720001466556657671667F0BD18B4034B9B684F
:10473000FC46019308BD08DF214B00102022002019
:10474000000000D0FFB550404240504059404B401F
:10475000594000E0FFB5154F4C00640D03D0BC423A
:1047600004D10C0314D80020090D09055C00640D68
:1047700003D0BC4204D11C030AD800221B0D1B0528
:1047800001264B4009D44B4003D58B4200D18242D5
:10479000FFBD9942FCD19042FFBD0B43DB180343A0
:1047A0001343F5D0C9434918FFBD0000FF070000BF
:1047B00000B5FFF7CFFF804100BDC04600B5FFF751
:1047C000C9FF01D9002000BD012000BD00B5FFF7E1
:1047D000B9FF01D9002000BD012000BD00B5FFF7E1
:1047E000B1FF804100BD012040054A00121804D8E5
:1047F0005A00121801D8002070470120704700208D
:10480000704700000021002805D17047C1174840BB
:10481000401AFAD0C90713B5064B1B6898470CBC61
:10482000441CA2401005120B0349091B090519433A
:10483000114310BD202300201F04000010B54C00C0
:10484000620D8023D218DB00D21A5B057E2A10DDB0
:104850009E3A13DACC170903490819435242D14052
:10486000640001341532202A05DAD0400843604341
:1048700010BD002010BD0846604310BDC80FC01811
:10488000013810BD18B4044B5B6AFC46019308BDA7
:1048900024DF2D4E001000002022002018B4044B0D
:1048A000DB6FFC46019308BD7CDFAD4E00100000BD
:1048B0002022002070B513231C78012C12D0012C6B
:1048C00012DC214B214A93642148FFF76FFC214BF6
:1048D000186070BD1C491D4A9800815001331F2B80
:1048E000F8D9ECE70023FAE71B48FFF767FC05005F
:1048F0001A48FFF763FC023803789B007F2B09DD21
:1049000012488022290000F0E5FC022C08D0022C7D
:10491000DADCD6E7124B134A13483221FEF7B2FA1B
:10492000124B1A88B5231B029A4209D1104B1A88E0
:10493000104B9A4204D1104B1A88104B9A42E6D081
:104940000020FEF737FBC0468149001020220020DE
:104950004C33000020230020534400005346000045
:104960007C900010B89B0010D090001054380000CC
:10497000D8380000494600009C3800005946000025
:1049800007B56046002800D100BE01880A0A02303F
:10499000DF2AFAD1C9B2820804D302884088000411
:1049A000104300E00068024A5050039007BD000029
:1049B000202200200FB403BC0CBCF0B50124E40796
:1049C000634000E0F0B50C0DCF0F661E3605891B65
:1049D000640503D3C943404200D30131640D03D0C1
:1049E000661CF60A07D0E41B00207F00791C8907AB
:1049F0008912803C24031D0DDF0F6E1E36059B1BA4
:104A00006D0503D3DB43524200D301336D0D03D058
:104A10006E1CF60A07D0ED1B00227F007B1C9B0753
:104A20009B12803D2D032F1B661B58D4A446202EBD
:104A300046DA20371400BC401D00BD40F24033412F
:104A40002A4380185941CB0F05D0C943C0430022E7
:104A500064425041514162464D0D28D10D0D07D1A0
:104A600000281FD0241940414941013A0D0DF9D0C9
:104A7000640006D3013000D30131002C01D140087D
:104A80004000013A0BD4941CE40A04D112051144ED
:104A9000DB071944F0BDD907204B194300E0D907C3
:104AA0000020F0BD0029DDD1002CDBD1F0BD0132AA
:104AB000C6074008CD0728434908002EE1D0D9E7B2
:104AC0003C2E29DA203E40371400BC4000D001249F
:104AD000F24014431A00BB401C43D317ACE7AC466A
:104AE000202F08DA20360400B4400D00B540F8400D
:104AF00039412843A5E73C2F0CDA203F403604001B
:104B0000B44000D00124F84004430800B1400C43F5
:104B1000C117EAE710001900002494E70000F07FB5
:104B2000F0B50C0D661E3605891BE60A6405640D9A
:104B300002D0651CED0A04D0002001210905803C4B
:104B40002403A4461C0D671E3F05DB1BE70A640512
:104B5000640D02D0651CED0A04D0002201231B0560
:104B6000803C24037740644497B484B296B2744383
:104B7000070C7E43150C6F4380B26843361802D38E
:104B8000012000043F183004350C00197D41844693
:104B900088B29AB250430C0C62431F0C7C438EB215
:104BA0007E43921902D301263604A4191604170C69
:104BB0003618674101BC81B29AB25143040C62437A
:104BC0001B0C5C4380B25843121802D3012000042E
:104BD00024181004130C401863412D185E41002066
:104BE000474106BC88B293B258430C0C6343120C85
:104BF000544389B251435B1802D30121090464185C
:104C000019041A0C091862416D18564100204741D9
:104C100018BCF902720D1143F0026A0D1043ED0247
:104C20000A0D03D16D1940414941013B124E9B1BB6
:104C30007600B3420ED26D0007D3013000267141D9
:104C40006646354301D1400840001B05C918E407FA
:104C50002144F0BD0BDA013306D1013004D101311A
:104C60004F0D01D04908F2E7E1070020F0BD013601
:104C700031050020EBE70000FF030000F0B51C0D3C
:104C8000671E3F05DB1BE70A6405640D02D0661C46
:104C9000F60A04D0002201231B05803C2403D02502
:104CA0002D060026F6432E661E096E66CE0FF619F7
:104CB000B44649004F0D02D07E1CF60A03D00020F6
:104CC0000021403F3F033E1BB600B444013F7F0537
:104CD000C91B49082E6F013676089C02950D2543A5
:104CE0007543ED137543AD1301356D10F603761B57
:104CF0000CB4CC02450D2C43A2B2B3B25A43270CDC
:104D00007B43350C6F43A4B26C431B1902D30124BF
:104D100024043F191C041D0CA4187D4124196D4165
:104D2000009A91B2ACB26143170C7C432B0C5F43E9
:104D300092B25A43A41802D301221204BF182204CB
:104D4000230C52187B41019C6C431B19520ED90154
:104D50000A434401A01A81B2B2B2514303145A4328
:104D6000360C734387B27743D617D21900277E419A
:104D700036049B191704160C7F185E417316ED1844
:104D8000F301002680337541A90F06D16400690A3A
:104D9000E8055B0A184309D22FE0042294448033CB
:104DA0007541A90AA8059B0A184326D340414941E9
:104DB0002404009A019B0D005543641B4343E41AED
:104DC00095B286B27543170C7E43030C5F4392B2D3
:104DD0005A43B61802D301221204BF183204330C0E
:104DE00052197B4152429C41002C02D400220130D6
:104DF00051414008CA071043490802B06246D7072C
:104E00009210084BD218084B9A4203D21205891807
:104E1000C919F0BD0020002A01DC3900F0BD0133C2
:104E20001905F5E7FD030000FE070000002200B5AC
:104E3000203200F004F8080000BD000000220B152D
:104E40000AD410B5944600F05FF81414013400DA67
:104E50000021CB17144C20470020002170476244EA
:104E6000343A0CD40C2A07DA0400914090405242A4
:104E70002032D440214310BDD843D94310BD203245
:104E800007D40C469440524220321141D040204376
:104E900010BD0800C917203203D4524220321041FD
:104EA00010BD1800190010BD5F4E00104A00520DD1
:104EB000144BD21A13DDFF2A1EDAD205CB0FDB0703
:104EC0001A43C300400F0903490A084310435B001B
:104ED00001D301D0013070474308FBD2704702D0A4
:104EE000C80FC00770470A0312130132F8D1420FEE
:104EF000072AF5D1012200E0FF22C80F0002801826
:104F0000C0057047800300000A0DCC0F531E1B051F
:104F1000C91A520503D3C943404200D30131520D8F
:104F200003D0531CDB0A07D0121B00206400611C55
:104F300089078912803A1203014BD21A7047000088
:104F4000FF03000051434343C9188C46110C83B240
:104F50004B4310B4040C614392B280B2504362439D
:104F60001C041B0C001910BC59411304120CC0186E
:104F7000514161447047000048404140484000238F
:104F80009C46114B5B68184700239C460E4B1B68E0
:104F900018470E4A936F9B0804D200239C460A4B85
:104FA000DB681847F0B5146E556E576F166FFFF734
:104FB000F4FF064A1466556657671667F0BD00236E
:104FC0009C46014B9B68184724230020000000D01A
:104FD00007B548404140484001E0C04607B542009F
:104FE000120E03D0FF2A03D1420218D8C00DC0050B
:104FF0004A00120E03D0FF2A03D14A020FD8C90D6E
:10500000C9050122414005D4414001D5814207BD77
:10501000884207BD0143491801D0C043001807BDAD
:1050200000B5FFF7DBFF804100BDC04600B5FFF7CC
:10503000CFFF804100BD491A002807D108467047BC
:10504000C10FC90700D54042002817D0F44603B469
:105050000B4B1B68984706BC81409E38404280310C
:1050600007D20B0607D04900490AC0051043084380
:1050700060470130F8E7490A8902F5E77047000008
:105080002023002041000A0E80231B067E2A0BDD10
:105090009E3A0BDAC1174002400818435242D040F2
:1050A000490001314843704700207047C00FC018C5
:1050B00001387047C0420DD300B5400040080021C0
:1050C00000F012F8002801D4404200BD8020000604
:1050D00000BD0000034BDB69FC4618471CDF3D5256
:1050E000001000002423002000239C46014B5B6A33
:1050F0001847000024230020034BDB6FFC461847B1
:105100007CDF5552001000002423002070B51323CB
:105110001E782A48FFF752F80500012E11D0012E03
:1051200009DDAB1E1B789B007F2B40DD24488022CD
:10513000290000F0CFF82348FFF738F8224B186019
:1051400070BD1F485422290000F0C4F81F4B1A8874
:105150001F4B9A421CD1A7239B011A881D4B9A42D0
:1051600016D11D4B1A881D4B9A4211D11C4B1A881F
:1051700094239B019A420BD11A4B1A881A4B9A42DC
:1051800006D11A4B1A681A4B9A4201D1152307E02F
:105190001848FDF70FFF184C094A99008C5001334D
:1051A0001F2BF8D9144B064A1362D361B7E7134B90
:1051B000134A14484221FDF765FEC04653460000DD
:1051C000242300204C33000020230020EE2900007F
:1051D000C40F0000C20D0000962B0000C0B50000F7
:1051E000182B0000CC2A000010B50000FC2C000099
:1051F00051ED8764C08F0010095200101491001007
:10520000CC9B00104891001007B56046002800D1E3
:1052100000BE01880A0A0230DF2AFAD1C9B2820828
:1052200004D3028840880004104300E00068024A6A
:105230005050039007BD0000242300200021C21518
:105240008032803201D0024A1047002070470000AF
:10525000CD2A0000C30FDB0741000A0E07D0FF2A4A
:1052600008D00909054A89181943400770471900F1
:10527000002070470249C918FAE700000000003812
:105280000000F07F10B5002804D04018034B98426E
:1052900000D810BD0248FDF78DFEC0460000042076
:1052A0008891001070B5050002F01EFD0400290071
:1052B000FFF7E8FF200070BD01480421014B1847AB
:1052C000600D0020CD410010014B1B681847000005
:1052D000600D0020014B5B6818470000600D002046
:1052E00010B5FFF7DFFF10BD10B503000800110077
:1052F0001B68984710BD0000F8B507000D001600A8
:10530000437D002B02D0002400200CE00368110034
:10531000280098472DE03B7D10E03B6815480221AE
:105320009847601C0134B44214DA002CF3DD2B19C9
:10533000013B1B780D3B5A425341DBB22A5D0A2ADE
:10534000F0D1002BEED1A042E7DA3B68211A2818F1
:105350009847E2E7B04203DA3B68311A28189847C9
:10536000002E06DDAD19013D2B780D3B5A4253410D
:105370003B75F8BD049C001070B505000368002B58
:1053800016D00C4B1C6805E0290004C92000FFF76B
:10539000B3FF2469002C09D02368002BF9D0064BF9
:1053A0001B68002BF0D0A342F3D1EDE700232B6064
:1053B00070BDC046681B0020741B002070B505003E
:1053C0000C000B68802B05D023685A1C2260E4185F
:1053D000257170BD0800FFF7CFFFF5E710B5002B72
:1053E00002DB0260436010BD024B034A03483F21C9
:1053F000FDF748FD10870010089C0010648700101E
:1054000010B582B00400FCF7FDFF02000B006846F7
:10541000FFF7E4FF009A019B22606360200002B066
:1054200010BD000070B582B0060014001D00FA2205
:105430009200002306980021FFF784FD02000B0074
:1054400012196B41002B09DB6846FFF7C7FF009A72
:10545000019B32607360300002B070BD0122524285
:10546000004BF1E7FFFFFF7F30B585B004000D0072
:1054700002A8FFF7C5FF029A039B00952000FFF7E3
:10548000D1FF200005B030BD00B583B0FA218900FE
:105490006846FFF7E9FF009A019B024803F010F904
:1054A00003B000BDE812002010B5024803F0C8F8B0
:1054B00010BDC046E8120020F0B5CE46474680B584
:1054C00083B006000D0090461C00FFF7DDFF81460B
:1054D0006B1C05D0002C08D0194F1A4B1C6807E034
:1054E000300002F027FF0500F4E7174FF5E72469C5
:1054F000002C17D02368002BF9D0144B1B68002B0D
:1055000001D0A342F3D12A0031002000B84743461E
:10551000002BECD06B46D91D0A230B700122200012
:10552000B847E4E74B46002B07D16B1E9D41E8B21C
:1055300003B0C0BCB946B046F0BDFFF7B5FFF4E715
:10554000E9520010681B0020F9520010741B002063
:10555000094A01E010331A001368002B08D0834277
:10556000F8D1002907D1036913600023036102E029
:10557000002900D010607047681B002010B5064B52
:105580001C6801E098472469002C03D06368002B55
:10559000F8D1F8E710BDC046681B002070B50500C3
:1055A00002F0C8FE04000023012201002800FFF7DA
:1055B00083FFFFF7E3FF200070BD000070B5A2B0CD
:1055C00004000E00FFF760FF0500002301930A4866
:1055D0003300220001A9FEF7D1FD040001A8FFF766
:1055E000CBFEFFF7CBFF002D02D1200022B070BD13
:1055F000FFF75AFFF9E7C046BD5300100FB400B5DE
:1056000083B004A901C90191FFF7D8FF03B008BC1A
:1056100004B0184710B500F0FFF8012010BD0000DD
:1056200010B582B00C00144BC3185A425341134AB0
:105630005B009B5E8B4204D06B46DA1D1470002128
:1056400015E06B46DA1D0D23137000210029F3D1FC
:1056500083699B06FCD41378036001310132F5E7BE
:1056600083699B06FCD41378036001310132002961
:10567000F6D002B010BDC0460080FCBFBC240020A4
:1056800082B000226B46D91D06E08369DB06FCD49C
:1056900003680B7001320131002AF6D06B46D879CD
:1056A00002B0704770B506000D00002405E0315DC2
:1056B000034B1868FFF7B4FF0134AC42F7DB70BD51
:1056C000C4240020F8B506000D00002705E07C1C6E
:1056D000F719FFF7D5FF38702700AF4204DA0E4AFA
:1056E00010688269D206F2D50C4A1268002A0CD0E2
:1056F000094A12685021916310003430526B1839F6
:1057000011408022520102431160002F01D0380065
:10571000F8BD033FFBE7C046C4240020841A0020E4
:1057200010B5064B1B68002B06D0054A12680021F5
:105730009163044A1068984710BDC046841A00203F
:10574000C4240020881A002070B505000E001C4BF0
:105750001A681C4BD31859424B4114331C000028C3
:105760001ED0194B1B68002B04D0174B1D60174B24
:105770001E6070BD16492000FBF7FCFD01212000D2
:10578000FBF7E8FD0E4B1B6850229A631900343179
:105790005B6B183A1A4080235B010B431A60E4E705
:1057A000094B1B68002BE0D00023936300212000ED
:1057B000FBF7D0FD06492000FBF70EFFD5E7C046FA
:1057C000C42400200080FCBF841A0020881A002016
:1057D0002157001070B50D001C000D4B1860002AF9
:1057E0000BDA002C0EDA0A4B18682900FDF730F9A5
:1057F00008480121FFF7ACFE70BD02211000FBF745
:1058000035FCEEE702212000FBF730FCEBE7C04659
:10581000C4240020700D002010B5064B1B78064BE9
:105820001B78E1210123002249020448FFF7D2FF3F
:1058300010BDC0466C9E0010689E001000400340E2
:1058400010B5024800F032F810BDC0461822002002
:1058500010B5002901D000230AE0104B104A11486E
:105860001F31FDF70FFB00220DE03732C254013328
:105870004A1E9A420ED90F2B0CD85A080A4CA45C27
:10588000DA07F0D4042214410F222240092AECDC6A
:105890003032EBE7C0180023037010BDC094001035
:1058A000349C0010F89100101822002030B589B007
:1058B000040004AD0D2200212800FFF705FD0D2294
:1058C00000216846FFF700FD4B232B700D2269462F
:1058D000280002F0ADFE002304E05A1D69468A5CF0
:1058E000E2540133072BF8DD09B030BD0123084A2B
:1058F0001360084A1360084B9A6801239343FAD156
:10590000064B01221A60054B1B68DB05FBD570476F
:1059100000E0004000F0004000C0004000C0044033
:1059200030B583B0040003681D6CEA0603D4AD06ED
:105930000AD403B030BD1B686A46D11D0B7010300D
:10594000012200F087F9F2E720001C3001226B46AB
:10595000D91D00F0B0F900280CD1236850229A63B9
:10596000190034315B6B183A1A4080235B010B43FA
:105970001A60DEE723686A46073212781A60D8E7B1
:1059800010B50248FFF7CCFF10BDC0467C1F0020B9
:1059900010B50248FFF7C4FF10BDC046A420002088
:1059A00070B50D001600002854D1314B314A1A60F1
:1059B00014225A60012853D0002857D12E492C4C6C
:1059C0006068FBF7D7FCA560E66020682B49FDF70F
:1059D0003FF82068002301220821FDF707F822681C
:1059E00013003033126BC02109020A4080256D017B
:1059F0002B431A6020680021FDF70EF82068002173
:105A0000FDF712F8A0680221FBF730FBE0680221E5
:105A1000FBF72CFB21002831636820001030802226
:105A200000F0ECF82100A831636820001C308022CF
:105A300000F0E4F860680121FBF78CFC2368502239
:105A40009A631A003432596B38230B4015432B608C
:105A5000200070BD0A4B0B4A1A6015225A60A9E754
:105A60000949074C6068FBF785FCACE70024AAE70E
:105A70007C1F00200040034081590010127A000072
:105A8000A4200020008003409159001010B51C3064
:105A900000F0E4F810BD000030B583B004004068A9
:105AA0000021FBF757FC25001C35280000F0FCF80E
:105AB000002803D123689B6B9B0605D560680121F4
:105AC000FBF748FC03B030BD01226B46D91D28000E
:105AD00000F0F1F8012815D123686A4607321278E0
